:100000000C9439020C9480020C9480020C948002AF
:100010000C9480020C9480020C9480020C94800258
:100020000C9480020C9480020C94301C0C94031DE0
:100030000C94A4130C9480020C9480020C94800203
:100040000C9480020C9480020C9480020C94800228
:100050000C9480020C940C140C9480020C9480027A
:100060000C9480020C9480020C9480020C94800208
:100070000C9480020C9480020C9480020C948002F8
:100080000C9480020C9480020C9480020C948002E8
:100090000C9480020C9480020C9480020C948002D8
:1000A0000C9480020C9480020C94800201E001E127
:1000B0000119021902E102E00001E001E10106027A
:1000C0000602E102E0001E001E001F0020002100C9
:1000D000220023002400250026000400050006005D
:1000E00007000800090001000100010001000100F3
:1000F00001000100010001000100010001000100F8
:1001000001000100010001000100010001000100E7
:1001100001000100010001000100010001000100D7
:1001200001000100010001000100010001000100C7
:1001300001000100010001000100010001000100B7
:1001400001000100010001000100010001000100A7
:100150000100010001000100010001000100010097
:100160000100010001000100010001000100010087
:100170000100010001000100010001000100010077
:100180000100010001000100010001000100010067
:100190000100010001000100010001000100010057
:1001A0000100010001000100010001000100010047
:1001B0000100010001000100010001000100010037
:1001C0000100010001000100010001000100010027
:1001D0000100010001000100010001000100010017
:1001E0000100010001000100010001000100010007
:1001F00001000100010001000100010001000100F7
:1002000001000100010001000100010001000100E6
:1002100001000100010001000100010001000100D6
:1002200001000100010001000100010001000100C6
:1002300001000100010001000100010001000100B6
:1002400001000100010001000100010001000100A6
:100250000100010001000100010001000100010096
:100260000100010001000100010001000100010086
:100270000100010001000100010001000100010076
:100280000100010001000100010001000100010066
:100290000100010001000100010001000100010056
:1002A0000100010001000100010001000100010046
:1002B0000100010001000100010001000100010036
:1002C00001000100010012036B006500790062006B
:1002D0006F006100720064000000160371006D0081
:1002E0006B006200750069006C00640065007200BC
:1002F00000000403090409026D00040100A0FA09CA
:100300000400000103010100092111010001224044
:10031000000705810308000A090401000103010226
:1003200000092111010001224D0007058203080088
:100330000A09040200010300000009211101000163
:100340002236000705830308000A0904030001039D
:100350000000000921110100012239000705840372
:100360002000011201100100000008EDFE60600194
:10037000000102000105010906A101050719E02994
:10038000E715002501950875018102050819012965
:1003900005950575019102950175039101050719F0
:1003A0000029F71500250195F875018102C00501A6
:1003B0000980A10185021601002603001A81002A86
:1003C0008300751095018100C0050C0901A101850C
:1003D00003160100269C021A01002A9C0275109542
:1003E000018100C005010902A1010901A10005095F
:1003F0001901290515002501950575018102950151
:10040000750381010501093009311581257F9502A8
:100410007508810609381581257F950175088106C3
:10042000050C0A38021581257F950175088106C0E3
:10043000C005010906A101050719E029E7150025F6
:10044000019508750181029501750881010508195A
:100450000129059505750191029501750391010525
:1004600007190029FF150026FF0095067508810071
:10047000C00011241FBECFEFDAE0DEBFCDBF04B64F
:1004800003FE27C08091080290910902A0910A0200
:10049000B0910B028730904BA740B04BD1F4109233
:1004A00008021092090210920A0210920B0214BE66
:1004B00084B7877F84BF0FB6F894A89580916000B9
:1004C000886180936000109260000FBEE0E0F8E366
:1004D000099511E0A0E0B1E0EEE8F0E402C005907B
:1004E0000D92A033B107D9F722E0A0E3B1E001C03B
:1004F0001D92A830B207E1F70E947F190C944520A5
:100500000C940000662329F0613051F090E080E007
:100510000895FC0182818823C9F389EB90E0089556
:10052000FC018281882391F38CEA90E0089508957C
:10053000089581E00895089581E008950C9499024A
:100540000E94200C2FEF84E39CE0215080409040DB
:10055000E1F700C000000C943114FF920F931F9339
:10056000CF93DF938C01FC01C081D1818091580130
:1005700081113FC082818823B9F1CE010E9485118B
:10058000F82E682FCE010E942D11BE018F2D0E94E2
:10059000F403EC01B8010E949E02882309F44AC0CA
:1005A000B801CE010E940406882309F443C0C53176
:1005B000F0E7DF0718F5C23080E7D80708F04BC036
:1005C000C115E0E7DE0789F1C130D047D1F181E004
:1005D0008093320180933301C801DF91CF911F9145
:1005E0000F91FF900C949C02CE010E945B11F82E9B
:1005F000CCCFCE010E948511BE01C9CFCC3380E79C
:10060000D80709F4ACC0CD33D04709F7F80182818F
:10061000882309F4CBC0109233010E94D613909323
:1006200031018093300180E2A7C0F80182818111FD
:100630000E94A00280E0DF91CF911F910F91FF9067
:100640000895F80182818823A9F38091C80181600F
:100650008093C801EFCFF8018281882309F4BCCFD1
:100660000E943613811102C00E941C130E94531372
:1006700090E09093FA018093F901FE01E350F04776
:100680008091F9018160E231F105C8F4E65BFC4F2D
:100690000C94F51F5C0368036C0370037403780308
:1006A0007C038003840388038C03900394039803E2
:1006B0009C03A003A403A8038091F90182608093A6
:1006C000F9018091F9010E9457130E94200CB2CFCA
:1006D0008091F9018460F3CF8091F9018860EFCFB8
:1006E0008091F9018061EBCF8091F9018062E7CFC1
:1006F0008091F9018064E3CF8091F9018068DFCFB8
:100700008091F9018460EACF8091F9018E7FD7CF83
:100710008091F9018D7FD3CF8091F9018B7FCFCF6D
:100720008091F901877FCBCF8091F9018F7EC7CF70
:100730008091F9018F7DC3CF8091F9018F7BBFCF6D
:100740008091F9018F77BBCF8091F9018B7FEACF40
:100750009091F901892F97FB87F98058B0CFF80164
:100760008281882361F0109232010E94D613909307
:1007700031018093300182E00E94AA095BCF809111
:10078000320181110FC080913001909131010E949E
:10079000E213883C910530F486E20E947F0886E2ED
:1007A0000E945B0982E00E94B10944CF809133012D
:1007B00081110FC080913001909131010E94E213AC
:1007C000883C910530F487E20E947F0887E20E940E
:1007D0005B0980E2E8CF0C9453060C9455060C9408
:1007E0009B020C94EF03089524E0829FC001112422
:1007F000FC01E70FF11DEE0FFF1FEE0FFF1FE60FCD
:10080000F11DEE0FFF1FEA53FF4F8591949108955C
:10081000FC01EE0FFF1FEA53FD4F8591949108955F
:100820000E94F4030E948305811520E4920708F0DA
:100830008DC0811540E3940708F0E8C0803E910523
:1008400008F071C0803C910508F0CCC0883A910551
:1008500080F4853A910508F0CAC08130910509F409
:100860006EC020F08430910508F069C090E080E00F
:1008700008958D3B9105D0F7883A910509F404C19C
:10088000893A910509F403C18A3A910509F402C134
:100890008B3A910509F401C18C3A910509F400C124
:1008A0008B3B910509F4FFC08C3B910509F4FEC018
:1008B0008D3A910509F4FDC0803B910509F4FCC017
:1008C0008E3A910509F4FBC08F3A910509F4FAC0FC
:1008D000813B910509F4F9C0823B910509F4F8C008
:1008E000833B910509F4F7C0843B910509F4F6C0F8
:1008F000853B910509F4F5C0863B910509F4F4C0E8
:10090000873B910509F4F3C0883B910509F4F2C0D7
:10091000893B910509F4F1C08A3B910509F4F0C0C7
:1009200080E094E408958F3F910509F048F4803FFA
:10093000910508F067C0883E910508F097CF0895AB
:10094000811520E2920708F05FC00895811543E504
:10095000940760F5811522E5920708F062C08115C1
:1009600041E5940708F058C0811520E5920708F486
:1009700050C09C0154E0369527955A95E1F7922F87
:100980009370482F437021E030E002C0220F331FE4
:100990004A95E2F73C68392B86958695837040E24C
:1009A000849FC0011124822B932B0895811545E566
:1009B000940750F4811524E5920708F446C0982F57
:1009C0008827846F906A0895811546E5940708F496
:1009D00050C09C0130569F702115304108F046CF21
:1009E00090620895805C91090E9408040895853AF8
:1009F000910509F443C0863A910509F042C082E8A6
:100A000090E40895906508959F70EECF9927906CBB
:100A100008959F70906A0895982F8827816F906A33
:100A20000895AC014370552721E030E002C0220F49
:100A3000331F4A95E2F78695869540E2849FC00170
:100A40001124822B932B9C680895AC014370552789
:100A500021E030E002C0220F331F4A95E2F786956D
:100A6000869540E2849FC0011124822B932B9A68C3
:100A70000895982F882788279F71B2CF81E890E446
:100A8000089583E890E4089582EE94E4089589EE51
:100A900094E408958AEE94E4089585EB94E408952F
:100AA00086EB94E4089583EB94E4089584EB94E456
:100AB000089587EB94E408958CEC94E408958DEC0C
:100AC00094E4089583E895E408958AE895E4089508
:100AD00082E995E4089584E995E4089581E296E435
:100AE000089583E296E4089584E296E4089585E209
:100AF00096E4089586E296E4089587E296E40895E0
:100B00008AE296E41CCF8238910549F1B0F4813332
:100B1000910509F45CC048F48932910509F452C08A
:100B20008A32910509F458C008958533910509F476
:100B300044C08933910599F00895833E910531F1C0
:100B400038F4803E910591F0823E9105B1F0089510
:100B5000863E910511F1873E910541F1089520915E
:100B6000F9012370C9F080EE90E008952091F90119
:100B700020FF12C089E390E008952091F90122FF3F
:100B80000BC024FF2EC090E080E008952091F90171
:100B900022FD2AC024FDF7CF08952091F90123FFFB
:100BA000FBCF24FDF0CF87EE90E008952091F9016E
:100BB00023FFF0CF86EE90E008952091F90125FD06
:100BC00016C008952091F90125FD14C008952091C3
:100BD000F90126FD12C008952091F90126FD10C0EB
:100BE000089583EE90E0089582EE90E0089589E202
:100BF00090E0089585E390E008958AE290E00895FA
:100C000081E390E0C9CF08950F931F93CF938C0198
:100C1000FB018281811106C0C1E08C2FCF911F9111
:100C20000F910895C0914101C11125C005311047B0
:100C300099F70E94030681E0809341010E94D61338
:100C40009093400180933F0110923401109236013D
:100C500010923501109238011092370110923A012A
:100C60001092390110923C0110923B0110923E010A
:100C700010923D01D2CF80913F01909140010E949E
:100C8000E213883C910540F680913401E82FF0E0B2
:100C9000EE0FFF1FEB5CFE4F118300838F5F80938D
:100CA0003401C0E0BACF0C9497020C949802CF9311
:100CB000DF9385B7806885BF85B7806885BFA7E16A
:100CC000B1E04BE151E0C1E0D0E08D91E82FE29539
:100CD000EF70F0E061A18F709E0101C0220F8A9534
:100CE000EAF7922F9095962391A382A1822B82A35B
:100CF0004A175B0751F7A3E1B1E047E151E0C1E0DA
:100D0000D0E08D91E82FE295EF70F0E061A18F7057
:100D10009E0101C0220F8A95EAF7922F90959623A3
:100D200091A382A1822B82A34A175B0751F71092ED
:100D30004601109242011092470110924301109215
:100D40004801109244011092490110924501DF912F
:100D5000CF910C94EB036F927F928F929F92AF9200
:100D6000BF92CF92DF92EF92FF920F931F93CF9398
:100D7000DF93C2E4D1E007E111E09BE1E92E91E0CD
:100D8000F92ECC24C394D12CBB24B394A880188210
:100D9000D8018D918D01E82FE295EF70F0E091A1DF
:100DA0008F70A60101C0440F8A95EAF7892F842B22
:100DB00081A382A1842E8094882182A3B0EABA956F
:100DC000F1F783E1682E81E0782E90E080E0D30196
:100DD0003D913D01632F62956F7070E0DB0190964D
:100DE0002C9198803F70B60101C0660F3A95EAF7E2
:100DF000622320E031F42C2D082E01C0220F0A942A
:100E0000EAF72929288301968430910501F781A109
:100E1000882181A382A1482B42A38881A81641F092
:100E2000B0924A010E94D61390934C0180934B01DB
:100E30002196E016F10609F0A9CF80914A01882396
:100E4000D1F080914B0190914C010E94E2130697E2
:100E500090F08091420180934601809143018093FC
:100E6000470180914401809348018091450180931E
:100E7000490110924A010E94ED0381E0DF91CF9178
:100E80001F910F91FF90EF90DF90CF90BF90AF90A8
:100E90009F908F907F906F900895E82FF0E0EA5B2D
:100EA000FE4F8081089508959093520180935101DF
:100EB0000895E0915101F0915201309721F0019095
:100EC000F081E02D099480E00895E0915101F091C6
:100ED0005201309721F00280F381E02D09940895AA
:100EE000E0915101F0915201309721F00480F58199
:100EF000E02D0994089520914F0130915001281759
:100F0000390771F09093500180934F01E0915101A6
:100F1000F0915201309721F00680F781E02D09947D
:100F2000089520914D0130914E012817390771F035
:100F300090934E0180934D01E0915101F091520147
:100F4000309721F00084F185E02D099408950895EB
:100F50000C94A7070E94CD130E9457060C94961478
:100F6000BF92CF92DF92EF92FF920F931F93CF9396
:100F7000DF93CDB7DEB72A970FB6F894DEBF0FBE6A
:100F8000CDBF0E94AB0684E5C82E81E0D82E10E0CC
:100F900000E0B02E802F0E944D07E82EF601F19060
:100FA0006F01F81609F45AC08091C80181FD0E94B2
:100FB000530790E080E0FE242F2D30E0482FB90148
:100FC000082E02C0759567950A94E2F760FF41C04C
:100FD0008E83BF8281E090E06C0102C0CC0CDD1CEE
:100FE0004A95E2F72E2D30E02C213D21232B09F4E8
:100FF00080E088870E94D6138160782F9A8789873E
:101000004E815F8168858A850E945508F801EC5AF7
:10101000FE4F80818C2580830E9419170E945907FA
:1010200090915301891789F10E94590780935301C8
:101030002A960FB6F894DEBF0FBECDBFDF91CF91D9
:101040001F910F91FF90EF90DF90CF90BF900C9485
:10105000F10301968430910509F0B0CF0F5F1F4F67
:101060000430110509F095CF8FEF89838A831B82A5
:101070000E94D6138160782F9D838C8349815A8189
:101080006B818D810E945508C7CF2A960FB6F894C0
:10109000DEBF0FBECDBFDF91CF911F910F91FF90AB
:1010A000EF90DF90CF90BF900895CF93DF93CDB7AF
:1010B000DEB72B970FB6F894DEBF0FBECDBF4F83C0
:1010C000588769877A878B871E821D8285E0FE019B
:1010D0003796DE01119601900D928A95E1F74981CC
:1010E0005A816B817C818D819E812B960FB6F894FD
:1010F000DEBF0FBECDBFDF91CF910C94D20E8823FF
:1011000009F4D8C0823871F40E94590781FDD2C019
:1011100089E30E9425120E94ED1289E30E94621267
:101120000C94ED12833859F40E94590780FDC2C017
:1011300083E50E9425120E94ED1283E5EFCF8438EB
:1011400059F40E94590782FDB5C087E40E94251218
:101150000E94ED1287E4E2CF9CEF980F913A18F4C9
:101160000E942512DDCF90E2980F983050F48770DE
:1011700091E001C0990F8A95EAF7892F0E94A41285
:10118000CFCF9BE5980F933070F4853A31F0863AD3
:1011900039F083E890E00C947B0781E890E0FBCF86
:1011A00082E890E0F8CF98E5980F953108F082C07A
:1011B000883A09F440C0893A09F440C08A3A09F4EF
:1011C00040C08B3A09F440C08C3A09F440C08B3BD4
:1011D00009F440C08C3B09F440C08D3A09F440C08A
:1011E000803B09F440C08E3A09F440C08F3A09F4BC
:1011F00040C0813B09F440C0823B09F440C0833BBE
:1012000009F440C0843B09F440C0853B09F440C068
:10121000863B09F440C0873B09F440C0883B09F491
:1012200040C0893B09F440C08A3B09F440C090E0CB
:1012300080E00C94910782EE90E0FBCF89EE90E085
:10124000F8CF8AEE90E0F5CF85EB90E0F2CF86EB19
:1012500090E0EFCF83EB90E0ECCF84EB90E0E9CF30
:1012600087EB90E0E6CF8CEC90E0E3CF8DEC90E064
:10127000E0CF83E891E0DDCF8AE891E0DACF82E940
:1012800091E0D7CF84E991E0D4CF81E292E0D1CF51
:1012900083E292E0CECF84E292E0CBCF85E292E08F
:1012A000C8CF86E292E0C5CF87E292E0C2CF8AE261
:1012B00092E0BFCF0895882309F44BC0823871F4BF
:1012C0000E94590781FF45C089E30E9425120E94B0
:1012D000ED1289E30E9462120C94ED12833859F4E6
:1012E0000E94590780FF35C083E50E9425120E94A5
:1012F000ED1283E5EFCF843859F40E94590782FF3D
:1013000028C087E40E9425120E94ED1287E4E2CFF4
:101310009CEF980F913AF0F290E2980F983050F4C9
:10132000877091E001C0990F8A95EAF7892F0E9492
:10133000AA12D2CF9BE5980F933020F490E080E082
:101340000C947B07885A853120F490E080E00C945F
:1013500091070895882321F00E94A4120C94ED12A5
:101360000895882321F00E94AA120C94ED1208958A
:101370008F929F92AF92BF92DF92EF92FF920F9364
:101380001F93CF93DF937C01D62FC72FFC010581DC
:1013900002950F70128111110E94C3120E941E1239
:1013A000D82E882371F0112321F180E28D0F88302F
:1013B00000F182E00E9408120E941E1291E0D82ED5
:1013C000D926EC2FE295EF70F0E0E751F64F0C9440
:1013D000F51FFB09FB094B0A4B0A8D0AA90A280ACB
:1013E000280AB40A280A4C0B4C0BBF0B280A280AFF
:1013F000C80BD12CE6CF0C2F0F70C07F11F00295D7
:10140000007F1123A9F0002359F080E28D0F88306E
:1014100010F0D11109C0802F0E94A4120E94ED1279
:101420008D2F0E947F0814C0802F0E94B512F6CF26
:101430008D2F0E945B09002359F080E28D0F8830C8
:1014400010F0D11124C0802F0E94AA120E94ED1228
:10145000DD2009F4A4C10E94FB1180FDA0C1F701A9
:1014600012820E94F5110E947110C7010E94DB0BCD
:101470000E94F511DF91CF911F910F91FF90EF9096
:10148000DF90BF90AF909F908F900C949210802F20
:101490000E94BB12DBCFFC2FFF70BF2EC07FC0327B
:1014A00019F0B29480EFB822DD2369F0D13029F130
:1014B000112369F1002359F0F701858180FFB0CF36
:1014C0008F70858304C0112361F0011104C08B2D3E
:1014D0000E94AA09BDCF8B2D0130D1F70E94D712EF
:1014E000B7CF011106C00E94DA128B2D0E94B109FC
:1014F000AFCF013009F4ACCFF6CF112321F0063085
:1015000008F0A6CFE4CF053008F0A2CFEECF00233D
:1015100061F38D2F0E945B099BCF8C2F869586955A
:10152000837069F0813009F093CF8D2F9C2F9370D9
:10153000111102C090E080E00E94910789CF8D2FA9
:101540009C2F9370111102C090E080E00E947B07F5
:101550007FCF8D2F112329F00E9422160E940E1793
:1015600077CF0E948A16FACF8C2F837009F047C07C
:1015700011116ECF2D2F229526952770220F220F45
:101580006D2F6F70862E912CB12CA12C022E04C0D1
:10159000880C991CAA1CBB1C0A94D2F760E070E06E
:1015A000CB01D4FF0FC06FE070E080E090E004C09A
:1015B000660F771F881F991F2A95D2F7609570953F
:1015C00080959095C695C695C370C23051F080F451
:1015D000682979298A299B29C13071F00E941A1043
:1015E00037CF682979298A299B290E94361030CF64
:1015F0000E941A10C501B4010E94FE0F29CF8695E2
:10160000112311F08C2F8170882309F421CF2D2F05
:10161000229526952770220F220F6D2F6F70862E30
:10162000912CB12CA12C022E04C0880C991CAA1C50
:10163000BB1C0A94D2F760E070E0CB01D4FF0FC06E
:101640006FE070E080E090E004C0660F771F881FB5
:10165000991F2A95D2F76095709580959095C695BB
:10166000C695C370C23051F080F4682979298A295F
:101670009B29C13071F00E94F410EACE68297929C3
:101680008A299B290E941011E3CE0E94F410C50103
:10169000B4010E94D810DCCEE0E2ED0FE53108F095
:1016A00062C0F0E0EA5AF44F0C94F51F6B0B6B0B21
:1016B0006B0B6B0B6B0B6B0B6B0B6B0B6B0B6B0B7A
:1016C0006B0B6B0B6B0B6B0B6B0B6B0B780B860B42
:1016D0008D0B940B9E0BDF708C2F8F71112321F0DB
:1016E0000E9471108D2FF4CE0E9492108D2FFECE8D
:1016F000112341F0053008F0ABCE8C2F8F710E9482
:10170000B710A6CE063008F0A3CEF7CF8C2F8F717E
:10171000112339F00E9471109BCE8C2F8F711123F1
:10172000C9F30E94921094CE112329F08C2F8F714F
:101730000E945C108DCE0E9452108ACE112349F077
:10174000CF718C2F0E94711063E08C2F0E94FF11CB
:101750007FCE81E00E940812023008F479CE82E048
:101760000E94081275CE112329F0011159CE8C2F39
:101770008F71D0CF0111CDCE8C2F8F71D2CF4C2F46
:101780004F706D2FC7010E9482020E947B0F60CEB6
:101790004C2F4F706D2FC7010E94F30359CEDF917C
:1017A000CF911F910F91FF90EF90DF90BF90AF907E
:1017B0009F908F9008950F931F93CF93DF93EC0129
:1017C000988189812B813C81232B39F08F3F19F43B
:1017D00081E09F3F19F080E001C081E080FD17C0EB
:1017E000CE010E94AD02882391F0688179818A81BF
:1017F0000E94D1118C010E942C110E94F30FB8019C
:10180000CE01DF91CF911F910F910C94B809DF9118
:10181000CF911F910F9108950E94C3120E94D4127C
:101820000E9496120E94ED120E94BB170E940E1792
:1018300090E080E00E947B0790E080E00C949107AC
:101840000E94B2120C940C0C0E94C711E92FE29571
:10185000EF70E250EE30E0F4F0E0EF5CF34F0C9408
:10186000F51F3F0C3F0C480C480C4A0C480C480C28
:10187000480C3F0C3F0C4F0C480C480C4F0C803F61
:1018800019F020F4803E20F481E00895843FE1F3D4
:1018900080E00895803EC0F3813FD1F7F5CF93FB00
:1018A000882780F90895CF93DF9300D000D01F924E
:1018B000CDB7DEB70F900F900F900F900F90DF9184
:1018C000CF910895CF93DF9300D000D000D0CDB753
:1018D000DEB726960FB6F894DEBF0FBECDBFDF9100
:1018E000CF9108951F93CF93DF93C091590116E0D4
:1018F00080915A018C1304C0DF91CF911F910895FC
:10190000D0E01C9FF0011D9FF00D1124E55AFE4F01
:101910004081518162817381848195810E94620C32
:101920002196C770E5CF40918B0150918C01609159
:101930008D0170918E0180918F01909190010C9496
:10194000620C1F93CF93DF9380919001807FD1F43D
:1019500080918D018823B1F080915901D0915A0175
:10196000B0918B01C0918C0140918E0150918F01FB
:10197000A1E0BF3F09F0A0E0BA016095709516E0C4
:10198000D81304C0DF91CF911F91089521E0411534
:10199000510521F02A2FCF3F09F020E090E020FDF3
:1019A00038C0189FF001199FF00D1124E55AFE4F21
:1019B00021812C132EC020812B132BC022812111B9
:1019C00028C0238134812417350700F1241B350BEF
:1019D000283C3105F0F4209190012F702061209374
:1019E000900126E0289FF001299FF00D1124E05A74
:1019F000FE4F80818F70806180838BE891E00E9430
:101A0000DB0BDF91CF911F910C94720C260F371FC7
:101A1000DFCF01968770B4CFAF92BF92CF92DF92A3
:101A2000EF92FF920F931F93CF93DF93CDB7DEB763
:101A300061970FB6F894DEBF0FBECDBF8C0185E075
:101A4000F801DE011D9601900D928A95E1F7D8010B
:101A50004C9111965C9111971296EC9030918B01FC
:101A600060918C0180918E0190918F0121E000970F
:101A700031F06F3F19F421E03F3F09F020E0B22F31
:101A8000B170BB2E20FD80C1F801C380D480A0902E
:101A90008D01AA2009F427C1C816D906D0F1D601B4
:101AA000A81BB90BCD01FF24F394883C910508F0E5
:101AB000F12C80919001982F907FFF2009F4CAC0EB
:101AC000911187C0FE2C651329C0341327C0E11083
:101AD00025C08F708061809390010E94930C8BE8E9
:101AE00091E00E94DB0B80919001F80185838F2D9E
:101AF00061960FB6F894DEBF0FBECDBFDF91CF91D8
:101B00001F910F91FF90EF90DF90CF90BF90AF901B
:101B10000895809590958C0D9D1DC5CF81E0CD28B1
:101B200031F05F3F19F481E04F3F09F080E080FD24
:101B300024C081E08E25F82FF170DF2E80FF3FC09A
:101B40008091590120915A0136E0821318C04D87C7
:101B50005E878D859E850E94C711292F22952F7043
:101B6000223008F1243030F59F7009F1D801159624
:101B70009C91907FE1F4FB2CBACF80E0DCCF90E029
:101B8000389FF001399FF00D1124E55AFE4F618115
:101B9000561306C06081461303C062816E110FC0E8
:101BA00001968770D2CF9F7011F0882321F3805E59
:101BB000883008F3C8010E94DB0BBD2CDCCFEE207F
:101BC00009F495CF80919001816080939001F12C70
:101BD0008ECF651312C0341310C0E1100EC0F8018F
:101BE0008583C8010E94DB0B86E0F801ABE8B1E019
:101BF00001900D928A95E1F741C04D875E878D85F2
:101C00009E850E94240C882309F4C8C0EE2009F4A4
:101C1000C5C080919001803270F020918B0130918D
:101C20008C0138872F831986DB86CA868C87CE0184
:101C300007960E94DB0B86E0F801ABE8B1E001906B
:101C40000D928A95E1F70E94A10C0E94930CFF244B
:101C5000F3944DCF911115C07C2DD98AC88A6E2D71
:101C600089890E94530C8BE891E00E94DB0B86E08F
:101C7000EBE8F1E0DF011D928A95E9F70E94930CF1
:101C800036CF651312C0341310C0E1100EC0F80136
:101C90008583C8010E94DB0BEBE8F1E086E0DF0101
:101CA0001D928A95E9F7FA2C22CF4D875E878D85A4
:101CB0009E850E94240C882309F470C0EE2009F44C
:101CC0006DC080919001803208F4B5CF20918B01D6
:101CD00030918C013A8329831B82DD82CC828E83F2
:101CE000CE010196A6CFC816D90638F1F601E81B39
:101CF000F90BCF01F12C883C910508F03DC0FE2C7A
:101D0000EE2009F44BC0651326C0341324C0809123
:101D1000900180FD17C0982F907FA1F0D8011596F3
:101D20008C931597903F09F45CCF982F907F905F2C
:101D30008F70892B15968C9354CF809590958C0D30
:101D40009D1DD8CF86E0F801ABE8B1E001900D927F
:101D50008A95E1F7CCCE4D875E878D859E850E9462
:101D6000240C811168CF8091900181608093900153
:101D7000C8010E94DB0BBBCE7C2DD98AC88A6E2D90
:101D800089890E94530C73CFEE2041F04D875E8706
:101D90008D859E850E94240C81114DCFC8010E9423
:101DA000DB0B55CF1F93CF93DF93CDB7DEB72C97C7
:101DB0000FB6F894DEBF0FBECDBF4F83588769873B
:101DC0007A878B879C87CE0107960E940C0D88230B
:101DD00009F442C09F8188852A853B85232B39F0F1
:101DE0008F3F19F481E09F3F19F080E001C081E04E
:101DF00080FD08C04F81588569857A858B859C85D3
:101E00000E94620C16E08091590190915A01891745
:101E100009F467C0819FC0011124855A9E4F0E941A
:101E20000C0D882309F45DC0E09159011E9FF0015B
:101E30001124E55AFE4F4081518162817381848172
:101E400095810E94620C8091590190E00196877003
:101E5000992780935901D7CF86E0FE013796DE019E
:101E6000119601900D928A95E1F79F8188852A85C8
:101E70003B85232B39F08F3F19F481E09F3F19F008
:101E800080E001C081E080FDBDCF20915A0130E0AB
:101E9000C901019687709927409159014817190681
:101EA00099F096E0929FD001939FB00D1124A55A0E
:101EB000BE4FFE01319601900D929A95E1F7809305
:101EC0005A010E94720C9ECF0E94200C10925A015F
:101ED0001092590186E0EBE8F1E0DF011D928A954E
:101EE000E9F72C960FB6F894DEBF0FBECDBFDF9199
:101EF000CF911F910895EF92FF920F931F93CF936D
:101F0000DF938C01892B81F0F12CEE24E394E8011E
:101F10002196F8018491843770F4843008F05FC012
:101F20008130B1F08230A1F1DF91CF911F910F91FB
:101F3000FF90EF900895853709F44CC008F43DC038
:101F40009CE7980F903780F78F770E945B0949C014
:101F50000E5F1F4FFE01849190E2980F983060F45D
:101F60008770FE2D01C0FF0F8A95EAF78F2F0E9420
:101F7000C6120E94ED1202C00E947F088F2D815070
:101F800030F2EFE9FFE03197F1F700C00000F7CF42
:101F90000E5F1F4FFE01849190E2980F983050F42D
:101FA0008770FE2D01C0FF0F8A95EAF78F2F0E94E0
:101FB000CC12DFCF0E945B09E1CF0E5F1F4FFE0105
:101FC000C491C150D8F28FE99FE00197F1F700C0AA
:101FD0000000F7CF0E5F1F4FFE01F490CFCF0E949D
:101FE0007F088E01CBCF089560939F017093A0016D
:101FF0008093A1019093A2010C940C0C0F931F935A
:1020000000919F011091A0012091A1013091A201A6
:10201000DC01CB01802B912BA22BB32B80939F0152
:102020009093A001A093A101B093A2011F910F91E1
:102030000C940C0C0F931F9300919F011091A00121
:102040002091A1013091A201DC01CB0180239123D9
:10205000A223B32380939F019093A001A093A10199
:10206000B093A2011F910F910C940C0C0F931F932E
:1020700000919F011091A0012091A1013091A20136
:10208000DC01CB0180279127A227B32780939F01F2
:102090009093A001A093A101B093A2011F910F9171
:1020A0000C940C0C10929B0110929C0110929D01BB
:1020B00010929E010C940C0C41E050E060E070E046
:1020C00004C0440F551F661F771F8A95D2F74093AF
:1020D0009B0150939C0160939D0170939E010C9411
:1020E0000C0C41E050E060E070E004C0440F551F6C
:1020F000661F771F8A95D2F780919B0190919C0172
:10210000A0919D01B0919E01842B952BA62BB72BFE
:1021100080939B0190939C01A0939D01B0939E019D
:102120000C940C0C41E050E060E070E004C0440FFF
:10213000551F661F771F8A95D2F740955095609579
:10214000709580919B0190919C01A0919D01B0910F
:102150009E0184239523A623B72380939B0190930C
:102160009C01A0939D01B0939E010C940C0C41E046
:1021700050E060E070E004C0440F551F661F771FF9
:102180008A95D2F780919B0190919C01A0919D012D
:10219000B0919E0184279527A627B72780939B019E
:1021A00090939C01A0939D01B0939E010C940C0C04
:1021B0000F931F9300919B0110919C0120919D0111
:1021C00030919E01DC01CB01802B912BA22BB32BF4
:1021D00080939B0190939C01A0939D01B0939E01DD
:1021E0001F910F910C940C0C0F931F9300919B0166
:1021F00010919C0120919D0130919E01DC01CB0149
:1022000080239123A223B32380939B0190939C016D
:10221000A0939D01B0939E011F910F910C940C0C03
:102220000F931F9300919B0110919C0120919D01A0
:1022300030919E01DC01CB0180279127A227B32793
:1022400080939B0190939C01A0939D01B0939E016C
:102250001F910F910C940C0C0895990F990F890FF1
:10226000982F977071E001C0770F9A95EAF78695DD
:102270008695869525E0829FC001112450E040E0BC
:10228000A62FB0E0FC01E40FF51FEF56FE4F608172
:102290009D01042E02C0369527950A94E2F721701D
:1022A000219526272723262720834F5F5F4F453020
:1022B000510541F70895990F990F890F982F97703D
:1022C00086958695869525E0829FA001112470E071
:1022D00060E080E0FA01E60FF71FEF56FE4F208125
:1022E00030E0092E02C0369527950A94E2F7217056
:1022F0003327062E01C0220F0A94EAF7822B6F5F64
:102300007F4F6530710531F70895BF92CF92DF920C
:10231000EF92FF920F931F93CF93DF938C01C090A6
:102320009B01D0909C01E0909D01F0909E018091D6
:102330009F019091A001A091A101B091A201C82A92
:10234000D92AEA2AFB2ACFE1D0E0BC2ED701C60168
:102350000C2E04C0B695A795979587950A94D2F749
:1023600080FD0EC0219788F7B12C8B2DDF91CF9186
:102370001F910F91FF90EF90DF90CF90BF90089545
:10238000B8018C2F0E941004019761F3EECFCF9318
:10239000DF93EC010E948511BE01DF91CF910C9477
:1023A00010041F93CF93DF93EB0190915801992371
:1023B00031F0CB01DF91CF911F910C94C71188238D
:1023C00079F0CB010E948511182F682FCE010E9451
:1023D0002D11BE01812FDF91CF911F910C9410041C
:1023E000CB010E945B11182FF4CF8091A30185953A
:1023F0008595859508958091A3018770089598E04B
:10240000899F90011124622B6093A3010C94711099
:102410009091A301809589238093A301282F277091
:1024200061F4282F082E000C330B9217130629F0A5
:102430008595859585950C94921008959091A301AA
:10244000977081E009F480E008959091120199233A
:10245000E1F09091F90197FF18C0E82FE695E69515
:10246000E695EF3139F12091000130910101E20F41
:10247000F32FF11D877021E030E001C0220F8A9513
:10248000EAF78181822B81830895209100013091A8
:102490000101F90132969FEF40E05191851751F00B
:1024A0009F3F19F4511101C0942F4F5F4E31A9F78E
:1024B0009F3F09F40895290F311D97FD3A95F901C1
:1024C00082830895909112019923F1F09091F9017E
:1024D00097FF1AC0E82FE695E695E695EF3129F1CA
:1024E0002091000130910101E20FF32FF11D282FFF
:1024F000277081E090E001C0880F2A95EAF7809567
:1025000091818923818308952091000130910101F7
:10251000F9013296205E3F4F9191891303C0DF018C
:1025200011971C92E217F307B9F7089581E090E044
:10253000E0910001F0910101E80FF91F108201966E
:1025400080329105A9F708959091C701892B809356
:10255000C7010895982F90958091C7018923809392
:10256000C70108951092C70108959091C601892B63
:102570008093C6010895982F90958091C601892374
:102580008093C60108951092C60108959091C501E7
:10259000892B8093C5010895982F90958091C5014E
:1025A00089238093C50108951092C50108958093F1
:1025B000A40108951092A401089520910001309182
:1025C0000101F9013196205E3F4F80E09191911118
:1025D0008F5FE217F307D1F70895E0910001F091C2
:1025E00001018091C7018083E0910001F091010118
:1025F00080819091C601892B8083E0910001F09148
:10260000010180819091C501892B80839091A40163
:10261000992361F0E0910001F09101018081892B03
:1026200080830E94DD1281111092A401809100012B
:10263000909101010C9465076DEE7EEF90E080E0D3
:102640000E942F2060E082E090E00E941D2060E068
:1026500083E090E00E941D2060E084E090E00E9412
:102660001D2060E085E090E00C941D2090E080E06B
:102670000E94172021E08D3E9E4F09F020E0822F1E
:10268000089582E090E00C940F20682F82E090E0A3
:102690000C941D2083E090E00C940F20682F83E0C1
:1026A00090E00C941D2084E090E00C940F20682FA3
:1026B00084E090E00C941D208091FF01843039F17A
:1026C0001092C90188E190E020E40FB6F894A89533
:1026D000809360000FBE2093600080E00E94F103B1
:1026E00083B7817F846083BF83B7816083BF789421
:1026F000889583B78E7F83BF0FB6F894A895809195
:102700006000886180936000109260000FBE0895A1
:1027100008950895CF930E9488130E94AB060E94EB
:102720008913C0E08C2F0E944D07811105C0CF5F37
:10273000C430C1F7CF91089581E0FCCF0E94200CF6
:102740000E9459070C94F1031F920F920FB60F923B
:1027500011248F939F93AF93BF938091C9018111EF
:1027600013C08091F5019091F601A091F701B0910D
:10277000F8014196A11DB11D8093F5019093F601DA
:10278000A093F701B093F801BF91AF919F918F9102
:102790000F900FBE0F901F90189582E084BD93E0BC
:1027A00095BD9AEF97BD80936E0008952FB7F8946A
:1027B0008091F5019091F601A091F701B091F80197
:1027C0002FBF0895CF92DF92EF92FF920F931F9346
:1027D0002FB7F8944091F5015091F6016091F701FF
:1027E0007091F8012FBF6A017B01EE24FF248C0158
:1027F00030E020E0C016D106E206F30650F0481B98
:10280000590BCA011F910F91FF90EF90DF90CF906D
:10281000089541505109F3CF1F920F920FB60F92B6
:1028200011248F939F93AF93BF938091F501909163
:10283000F601A091F701B091F8010196A11DB11D1B
:102840008093F5019093F601A093F701B093F801FE
:10285000BF91AF919F918F910F900FBE0F901F90DE
:1028600018950E94B51BF8942FEF87EA91E6215046
:1028700080409040E1F700C0000087E090EBDC0171
:102880008093080290930902A0930A02B0930B026E
:1028900088E19CE00FB6F894A895809360000FBE85
:1028A00090936000FFCFCF92DF92EF92FF920F9351
:1028B0001F93CF93C0E0E82EF12C8C2F0E944D0780
:1028C00010E000E0C82ED12CC601002E02C0959564
:1028D00087950A94E2F780FD11C00F5F1F4F043007
:1028E000110591F7CF5FC43041F780E0CF911F9180
:1028F0000F91FF90EF90DF90CF900895602F7C2F85
:1029000080E00E94F403E816F90639F781E0EECF83
:10291000CF93C82F8CE20E945314882321F08C2F70
:10292000CF910C94531480E0CF910895CF930E94DF
:102930003613811102C00E941C13C5E608C00E9414
:10294000AB068FE39CE90197F1F700C00000C1508E
:10295000B1F789E20E9488148111EFC08AE20E94D7
:10296000881481110E941C1385E00E948814811133
:102970000E9431140E9441138093C80187E00E9495
:102980008814882371F08BE10E948814882309F44D
:10299000B1C09091C801892F8D7F91FF8260809393
:1029A000C8018091C8010E9445130E94531390E012
:1029B0009093FA018093F90180EE0E948814882395
:1029C00041F09091F901892F8E7F90FF8160809373
:1029D000F90189E30E948814882341F09091F9015C
:1029E000892F8D7F91FF82608093F90182EE0E9492
:1029F0008814882341F09091F901892F8B7F92FFF1
:102A000084608093F90186EE0E948814882341F047
:102A10009091F901892F877F93FF88608093F90156
:102A200083EE0E948814882341F09091F901892F48
:102A30008F7E94FF80618093F90185E30E94881462
:102A4000882341F09091F901892F8F7D95FF806255
:102A50008093F90181E30E948814882341F09091CA
:102A6000F901892F8F7B96FF80648093F90181E1C2
:102A70000E948814882341F09091F901892F97FBD7
:102A800087F980588093F9018091F9010E945713CA
:102A900087E20E948814C82F8EE10E948814811159
:102AA000C2608FE10E9488148111C46080E20E949C
:102AB00088148111C86081E20E9488148111C0616C
:102AC00082E20E9488148111C06283E20E9488140D
:102AD0008111C06484E20E948814882341F1C06897
:102AE0008C2F0E944E136C2F70E090E080E0CF910D
:102AF0000C94F40F8EE00E948814882339F0909192
:102B0000C801892F8B7F92FF846049CF80E10E94AA
:102B100088149091C801882329F0892F877F93FF1B
:102B200088603DCF892F8E7F90FF816038CFC111A3
:102B3000D7CF0E944A13682FD7CFCF9108958091A5
:102B4000CC0180FF12C06091050185E0689FB00153
:102B50001124759567957595679560387105A8F589
:102B600061157105A1F1862F089581FF09C060915B
:102B7000050185E0689FB001112475956795EDCF3B
:102B800082FF07C06091050185E0689FB0011124B4
:102B9000E4CF2091CD012223A9F09091040160910E
:102BA000050185E0689FB00111242917B0F6269F22
:102BB000A001279F500D1124692F70E0CA010E94C7
:102BC000E11FCBCF65E070E0CECF8FE7089581E0C5
:102BD00008958091CC0180FF0CC06091030170E0EA
:102BE00075956795759567956115710549F1862FFE
:102BF000089581FF06C06091030170E075956795A7
:102C0000F3CF6091030182FD0BC09091CD01992318
:102C1000A1F06091020180910301961738F0682FAE
:102C200070E06038710500F38FE70895899FC00157
:102C3000112470E00E94E11FF4CF61E070E0D7CF73
:102C400081E00895803F31F40E949F158195809323
:102C5000D0010895813F19F40E949F15F8CF823F5B
:102C600031F40E949F1581958093CF010895833F91
:102C700019F40E949F15F8CF893F29F40E94E915A5
:102C80008093D10108958A3F21F40E94E91581952E
:102C9000F7CF8B3F31F40E94E91581958093D201E3
:102CA00008958C3F19F40E94E915F8CF843F31F460
:102CB0008091CE0181608093CE010895853F21F4FB
:102CC0008091CE018260F7CF863F21F48091CE01C2
:102CD0008460F1CF873F21F48091CE018860EBCFF3
:102CE000883F21F48091CE018061E5CF8D3F31F4A2
:102CF0008091CC0181608093CC0108958E3F21F4B6
:102D00008091CC018260F7CF8F3FB9F78091CC01E1
:102D10008460F1CF803FC1F48091D00187FD109293
:102D2000D0018091CF0181110EC08091D00181111D
:102D30000AC08091D101811106C08091D201811118
:102D400002C01092CD010895813F29F48091D001F5
:102D500018162CF3E6CF9091CF01823F29F497FF0C
:102D6000E0CF1092CF01DDCF833F19F41916CCF3D9
:102D7000D8CF893F39F48091D101181694F610927A
:102D8000D101CFCF8A3F29F48091D10187FFC9CFEC
:102D9000F6CF8B3F39F48091D20187FFC2CF1092DA
:102DA000D201BFCF8C3F29F48091D2011816BCF319
:102DB000B8CF843F31F48091CE018E7F8093CE01D5
:102DC000B0CF853F21F48091CE018D7FF7CF863F34
:102DD00021F48091CE018B7FF1CF873F21F4809148
:102DE000CE01877FEBCF883F21F48091CE018F7E8B
:102DF000E5CF8D3F31F48091CC018E7F8093CC0163
:102E000090CF8E3F21F48091CC018D7FF7CF8F3F03
:102E100009F087CF8091CC018B7FF0CF8EEC91E0D1
:102E20000E9470070E94D6139093CB018093CA0131
:102E300008951F93CF93DF938091CA019091CB01A6
:102E40000E94E213AC019091CD012091060130E087
:102E5000911106C0209107018AE0289F900111245A
:102E60004217530780F08091CF01C091D00110919B
:102E7000D101D091D20181110AC0C11178C01111C4
:102E800076C0D11174C0DF91CF911F9108959F3FFB
:102E900019F09F5F9093CD01181624F40E949F159E
:102EA0008093CF018091CF0187FF05C00E949F15BD
:102EB00081958093CF011C1624F40E949F15809366
:102EC000D0018091D00187FF05C00E949F15819598
:102ED0008093D0016091CF01662331F1C091D00180
:102EE000CC2311F1062E000C770B880B990B0E9456
:102EF000E81E23E333E343E35FE30E944C1F0E9499
:102F0000B01E6093CF016C2FCC0F770B880B990B01
:102F10000E94E81E23E333E343E35FE30E944C1F78
:102F20000E94B01E6093D001111624F40E94E9158E
:102F30008093D1018091D10187FF05C00E94E915DE
:102F400081958093D1011D1624F40E94E915809388
:102F5000D2018091D20187FF05C00E94E9158195B9
:102F60008093D201DF91CF911F910C940E179F3F58
:102F700009F08FCFA0CF85E0EEECF1E0DF011D92EC
:102F80008A95E9F71092CD011092CC0108958091B5
:102F9000F3010895CF93DF9300D01F92CDB7DEB732
:102FA0009C018091FF01843019F593E099833B8364
:102FB0002A839093E9008FEF9091E800815095FD6E
:102FC00006C095ED9A95F1F700008111F5CF80913B
:102FD000E80085FF0DC050E040E063E070E0CE0106
:102FE00001960E94251A8091E8008E778093E80070
:102FF0000F900F900F90DF91CF910895CF93DF93B3
:1030000000D01F92CDB7DEB72091FF01243031F5FB
:1030100022E02983805891099B838A8383E08093EF
:10302000E9008FEF9091E800815095FD06C095ED85
:103030009A95F1F700008111F5CF8091E80085FFA6
:103040000DC050E040E063E070E0CE0101960E94C8
:10305000251A8091E8008E778093E8000F900F90FA
:103060000F90DF91CF9108959C018091FF018430F2
:10307000F9F482E08093E9009FEF8091E80091509D
:1030800085FD06C085ED8A95F1F700009111F5CF19
:103090008091E80085FF0CC050E040E065E070E002
:1030A000C9010E94251A8091E8008E778093E8007C
:1030B0000895CF93DF93EC018091FF018430F1F408
:1030C000909112019923E9F09091F90197FF19C0AD
:1030D0008093E9008FEF9091E800815095FD06C044
:1030E00095E19A95F1F700008111F5CF8091E80004
:1030F00050E040E060E270E085FD1AC0DF91CF91C2
:10310000089581E08093E9008FEF9091E80081506D
:1031100095FD06C095ED9A95F1F700008111F5CF68
:103120008091E80085FFEACF50E040E068E070E081
:10313000CE010E94251A8091E8008E778093E800E6
:1031400080E2FE01A3EDB1E001900D928A95E1F7D6
:10315000D5CF8091FE01811109C00E94B51B0E944C
:10316000121C8091E20084608093E2000895109226
:10317000FE010895089508950C949E1342E061ECB9
:1031800081E00E94331B42E061EC82E00E94331B2D
:1031900042E061EC83E00E94331B42E261EC84E098
:1031A0000C94331B80910102833009F455C030F434
:1031B000813071F1823009F491C008958A3009F4A8
:1031C0007DC08B3009F463C0893009F044C0809120
:1031D0000002813209F03FC0809104029091050203
:1031E000009711F00397B9F58091E800877F8093ED
:1031F000E8008091E80082FF2AC08091F10080936E
:10320000F3018091E8008B778093E8000C94671BB2
:1032100080910002813AF9F48091E800877F8093E1
:10322000E8008091040290910502892B61F460E22C
:1032300083ED91E070E00E94741A8091E8008B7732
:103240008093E800089560E090E080E0F3CF809103
:10325000FF018111CECF089580910002813AD9F704
:103260008091040290910502892BA9F78091E800D2
:10327000877F8093E8008091E80080FFFCCF8091F9
:1032800012018093F1008091E8008E77BDCF80918C
:103290000002813201F78091040290910502892B8E
:1032A000D1F68091E800877F8093E8000E94671B39
:1032B00080910202809312010C94200C80910002F4
:1032C000813249F68091E800877F8093E8000E9470
:1032D000671B809103028093F4010895809100029E
:1032E000813A09F0B8CF8091E800877F8093E800A9
:1032F0008091E80080FFFCCF8091F401C2CF84B7B9
:10330000877F84BF0FB6F894A8958091600088618C
:1033100080936000109260000FBE80E8809361008F
:10332000109261000E94A8070E94B51B0E94121C07
:103330008091E20084608093E20078940E94941E61
:103340000E94AA0788E091E00E9454078091FF0143
:10335000853019F00E94B007F9CF0E945C1380916C
:10336000FD01882399F30E948A13882379F30E9430
:103370000F1AECCF292F33272330310579F158F478
:1033800021303105F1F02230310519F190E080E073
:1033900030E020E01AC02132310599F122323105A6
:1033A000A9F7643098F770E0FB01EE0FFF1FE15EB4
:1033B000FE4F20813181655E7E4FFB01808190E070
:1033C00004C082E190E023E633E0FA0131832083F8
:1033D00008958DE690E026EF32E0F7CF992781300F
:1033E000910561F028F0029789F6E6ECF2E002C060
:1033F000E2EFF2E0849190E09F01E7CFEAEDF2E0A6
:10340000F9CF643008F0C2CFE62FF0E0EE0FFF1FD7
:10341000E95DFE4F2081318189E090E0D6CF80E1E7
:1034200089BD82E189BD09B400FEFDCF8091D8003D
:103430008F7D8093D8008091E00082608093E000CF
:103440008091E00081FDFCCF0895AF92BF92CF92B2
:10345000DF92FF920F931F93CF93DF936C01EB01E9
:103460008A010E94861BF82E811123C001151105C7
:1034700039F0F80180819181C81BD90BC80ED91E83
:10348000B12CA12C2097A9F08091E80085FD22C0E5
:103490008091E8008E778093E80001151105A1F076
:1034A000F80180819181A80EB91EB182A08285E0C9
:1034B000F82E8F2DDF91CF911F910F91FF90DF900C
:1034C000CF90BF90AF9008950E94861B8823D1F2C1
:1034D000F82EEFCFF60181916F018093F1002197D3
:1034E000FFEFAF1ABF0ACECFFC0180910602909188
:1034F000070286179707A0F06115710529F49091CE
:10350000E8009E779093E80090E06115710551F412
:10351000911108C08091E80082FF35C080E00895D5
:10352000BC01F2CF8091FF018823C9F18530C9F138
:103530008091E80083FD31C08091E80082FDEACFF0
:103540008091E80080FFE1CF2091F3008091F200AC
:10355000322F282F6115710519F02830310558F0E8
:1035600091E02830310509F090E02091E8002E77B5
:103570002093E800CACF81918093F10061507109D6
:103580002F5F3F4FE7CF8091FF01882341F08530C7
:1035900041F08091E80083FFBDCF81E0089582E093
:1035A000089583E00895FC0180910602909107023E
:1035B00086179707A0F06115710529F48091E8003E
:1035C0008E778093E80090E06115710551F49111B8
:1035D00008C08091E80082FF36C080E00895BC01F9
:1035E000F2CF8091FF018823D1F18530D1F1809114
:1035F000E80083FD32C08091E80082FDEACF80912F
:10360000E80080FFE1CF2091F3008091F200322F9B
:10361000282F6115710519F02830310558F091E017
:103620002830310509F090E08091E8008E77809392
:10363000E800CACF84918093F100319661507109FE
:103640002F5F3F4FE6CF8091FF01882341F0853007
:1036500041F08091E80083FFBCCF81E0089582E0D3
:10366000089583E00895982F973028F08F70809305
:10367000E90081E008959093E900242F762F50E02F
:10368000981731F07091EC002091ED005091F0000E
:1036900021FD02C09F5FE8CF3091EB003E7F309369
:1036A000EB003091ED003D7F3093ED003091EB0069
:1036B00031603093EB007093EC002093ED00509359
:1036C000F0002091EE0027FDE5CF80E00895809185
:1036D000000287FF13C08091E80082FF06C080913E
:1036E000E8008B778093E80004C08091FF0181118E
:1036F000F2CF08958091FF018823D9F38091E800EB
:1037000080FFF8CF8091E8008E77ECCF2091E40025
:103710003091E50085E69091EC0090FF06C0909115
:10372000E80090FF06C080E008959091E80092FDC7
:10373000FACF9091FF01992391F0953091F09091FB
:10374000EB0095FD10C04091E4005091E500241776
:10375000350709F381509A01F1F684E0089582E07B
:10376000089583E0089581E008950E94231C0E943B
:103770002B1CE0EEF0E0808181608083E8EDF0E0DA
:1037800080818F77808319BCA7EDB0E08C918E7F0C
:103790008C9380818F7E80831092FE0108950F9319
:1037A0001F93CF93DF930E94231C0E942B1CC8ED14
:1037B000D0E088818F77888388818068888388813A
:1037C0008F7D888319BC1092FF011092FB0110922B
:1037D000FD011092FC0100EE10E0F80180818B7F6A
:1037E000808388818160888342E060E080E00E947D
:1037F000331BE1EEF0E080818E7F8083E2EEF0E02B
:10380000808181608083808188608083F8018081ED
:103810008E7F8083888180618883DF91CF911F9123
:103820000F910895E8EDF0E080818F7E8083E7EDD1
:10383000F0E080818160808384E082BF81E08093BA
:10384000FE010C94CF1BE8EDF0E080818E7F808339
:103850001092E20008951092DA001092E1000895AB
:103860001F920F920FB60F9211242F933F934F93F5
:103870005F936F937F938F939F93AF93BF93EF93D8
:10388000FF938091E10082FF0BC08091E20082FFF4
:1038900007C08091E1008B7F8093E1000E94931E1E
:1038A0008091DA0080FF19C08091D80080FF15C098
:1038B0008091DA008E7F8093DA008091D90080FFBA
:1038C00094C080E189BD82E189BD09B400FEFDCFCD
:1038D00081E08093FF010E94A9188091E10080FFA0
:1038E00019C08091E20080FF15C08091E2008E7FB8
:1038F0008093E2008091E20080618093E2008091F9
:10390000D80080628093D80019BC85E08093FF01C5
:103910000E94BB188091E10084FF29C08091E200E1
:1039200084FF25C080E189BD82E189BD09B400FE24
:10393000FDCF8091D8008F7D8093D8008091E100E9
:103940008F7E8093E1008091E2008F7E8093E20081
:103950008091E20081608093E2008091FB018823E6
:1039600009F449C084E08093FF010E94BC18809153
:10397000E10083FF29C08091E20083FF25C0809190
:10398000E100877F8093E10082E08093FF01109245
:10399000FB018091E1008E7F8093E1008091E20045
:1039A0008E7F8093E2008091E20080618093E2004C
:1039B00042E060E080E00E94331B8091F00088606C
:1039C0008093F0000E94BA18FF91EF91BF91AF91E0
:1039D0009F918F917F916F915F914F913F912F9127
:1039E0000F900FBE0F901F90189519BC1092FF01F9
:1039F0000E94B71872CF8091E30087FD02C081E07A
:103A0000B2CF83E0B0CF1F920F920FB60F92112466
:103A10002F933F934F935F936F937F938F939F93D6
:103A2000AF93BF93CF93EF93FF93C091E900CF7013
:103A30008091EC001092E9008091F000877F8093E4
:103A4000F00078940E943F1D1092E9008091F000F0
:103A500088608093F000C093E900FF91EF91CF91CF
:103A6000BF91AF919F918F917F916F915F914F9196
:103A70003F912F910F900FBE0F901F9018951F939D
:103A8000CF93DF93CDB7DEB7AA970FB6F894DEBF1A
:103A90000FBECDBFE0E0F2E08091F100819322E023
:103AA000E830F207C9F70E94D2188091E80083FF3E
:103AB00042C080910002909101029A3008F03BC010
:103AC000E92FF0E0EA59F24E0C94F51F701D941D99
:103AD0009B1D941D9B1DEF1D111E9B1D661E731EBD
:103AE000803879F0823839F5809104028F708093A4
:103AF000E9008091EB0085FB882780F91092E900AE
:103B000006C08091FC019091FD019111826090911D
:103B1000E800977F9093E8008093F1001092F10005
:103B20008091E8008E772DC0282F2D7F21F48823E7
:103B3000D1F0823059F18091E80083FF0AC0809172
:103B4000E800877F8093E8008091EB00806280939B
:103B5000EB00AA960FB6F894DEBF0FBECDBFDF9183
:103B6000CF911F91089580910202813021F7933007
:103B700009F080E08093FD011092E9008091E80057
:103B8000877F8093E8000E94671BD5CF8091020257
:103B90008111F2CF809104028F7069F28093E90065
:103BA0002091EB0020FFE8CF933031F48091EB00BF
:103BB00080628093EB00E0CF9091EB009061909356
:103BC000EB0021E030E001C0220F8A95EAF7209354
:103BD000EA001092EA008091EB008860EACF811140
:103BE000AACF109102021F778091E3008078812B89
:103BF0008093E3008091E800877F8093E8000E9433
:103C0000671B8091E80080FFFCCF8091E300806813
:103C10008093E30083E0111101C082E08093FF01F3
:103C20008ACF8058823008F086CF8091020290912E
:103C300003028C3D23E09207A1F583E08A838AE2A8
:103C400089834FB7F894DE01139620E03EE051E2FD
:103C5000E32FF0E050935700E49120FF03C0E2957A
:103C6000EF703F5FEF708E2F90E0EA30C0F0C796A4
:103C70008D939D932F5F243159F74FBF8091E800BA
:103C8000877F8093E8006AE270E0CE0101960E948F
:103C9000741A8091E8008B778093E8004CCFC0962F
:103CA000E7CFAE014F5F5F4F609104020E94BA19E7
:103CB000BC01892B09F43FCF9091E800977F909346
:103CC000E80089819A810E94D31AE3CF803809F0F5
:103CD00032CF8091E800877F8093E8008091FB01DC
:103CE0008093F1001DCF811126CF90910202923076
:103CF00008F021CF8091E800877F8093E8009093BF
:103D0000FB010E94671B8091FB01882331F084E056
:103D10008093FF010E94BE180ECF8091E30087FDC3
:103D2000F6CF81E0F5CF0895CF938091FF018823EE
:103D300099F0C091E900CF708091EC0080FD0EC039
:103D400080E0C82B1092E9008091E80083FD0E947A
:103D50003F1DCF70C093E900CF91089580E8F1CF67
:103D60000E94B71E6894B1110C94461F08950E94DA
:103D70002B1F88F09F5798F0B92F9927B751B0F0B3
:103D8000E1F0660F771F881F991F1AF0BA95C9F7DF
:103D900014C0B13091F00E94451FB1E008950C9419
:103DA000451F672F782F8827B85F39F0B93FCCF3CC
:103DB000869577956795B395D9F73EF4909580955C
:103DC000709561957F4F8F4F9F4F0895E89409C07C
:103DD00097FB3EF490958095709561957F4F8F4F3E
:103DE0009F4F9923A9F0F92F96E9BB279395F69554
:103DF000879577956795B795F111F8CFFAF4BB0FD2
:103E000011F460FF1BC06F5F7F4F8F4F9F4F16C035
:103E1000882311F096E911C0772321F09EE8872FBF
:103E2000762F05C0662371F096E8862F70E060E07B
:103E30002AF09A95660F771F881FDAF7880F9695F4
:103E4000879597F9089557FD9058440F551F59F0DD
:103E50005F3F71F04795880F97FB991F61F09F3F77
:103E600079F087950895121613061406551FF2CFA0
:103E70004695F1DF08C0161617061806991FF1CFF0
:103E800086957105610508940895E894BB27662717
:103E90007727CB0197F908950E945F1F0C94D01FDC
:103EA0000E94C21F38F00E94C91F20F0952311F014
:103EB0000C94B91F0C94BF1F11240C94461F0E9430
:103EC000231F70F3959FC1F3950F50E0551F629F1C
:103ED000F001729FBB27F00DB11D639FAA27F00D63
:103EE000B11DAA1F649F6627B00DA11D661F829F8A
:103EF0002227B00DA11D621F739FB00DA11D621F6F
:103F0000839FA00D611D221F749F3327A00D611D8B
:103F1000231F849F600D211D822F762F6A2F11246D
:103F20009F5750409AF0F1F088234AF0EE0FFF1FA0
:103F3000BB1F661F771F881F91505040A9F79E3FF7
:103F4000510580F00C94B91F0C94461F5F3FE4F3B9
:103F5000983ED4F3869577956795B795F795E7954D
:103F60009F5FC1F7FE2B880F911D9695879597F956
:103F7000089597F99F6780E870E060E008959FEFEB
:103F800080EC089500240A941616170618060906F0
:103F9000089500240A9412161306140605060895BF
:103FA000092E0394000C11F4882352F0BB0F40F447
:103FB000BF2B11F460FF04C06F5F7F4F8F4F9F4F87
:103FC000089597FB072E16F4009407D077FD09D0CB
:103FD0000E94FB1F07FC05D03EF4909581959F4FF2
:103FE0000895709561957F4F0895EE0FFF1F05901E
:103FF000F491E02D0994AA1BBB1B51E107C0AA1F35
:10400000BB1FA617B70710F0A61BB70B881F991F79
:104010005A95A9F780959095BC01CD010895F9991D
:10402000FECF92BD81BDF89A992780B50895A8E189
:10403000B0E042E050E00C943720262FF999FECFF3
:1040400092BD81BDF89A019700B4021639F01FBAEB
:1040500020BD0FB6F894FA9AF99A0FBE089501960A
:10406000272F0E941E200C941D20DC01CB01FC0197
:10407000F999FECF06C0F2BDE1BDF89A319600B4C1
:0E4080000D9241505040B8F70895F894FFCFCC
:10408E00A5012808140A321EC71759183418FE172E
:10409E00CA17016697C63432919094404D36393125
:1040AE0004E403AE037503080321033A035303002C
:00000001FF
